{
  "contractName": "CheckpointOracle",
  "abi": [
    {
      "inputs": [],
      "name": "VotingThreshold",
      "outputs": [
        {
          "internalType": "uint256",
          "name": "",
          "type": "uint256"
        }
      ],
      "stateMutability": "view",
      "type": "function"
    }
  ],
  "bytecode": "0x608060405234801561001057600080fd5b5060b78061001f6000396000f3fe6080604052348015600f57600080fd5b506004361060285760003560e01c80630be5b6ba14602d575b600080fd5b60336047565b604051603e91906068565b60405180910390f35b6000600754905090565b6000819050919050565b6062816051565b82525050565b6000602082019050607b6000830184605b565b9291505056fea26469706673582212201f08b6d85f41ca205bc428b542f8bb07c46d369ac8253003163d016c0232f3f864736f6c634300080a0033",
  "immutableReferences": {},
  "source": "// SPDX-License-Identifier: CC-BY-4.0\npragma solidity >=0.4.22 <0.9.0;\n\ncontract CheckpointOracle {\n    mapping(address => bool) admins;\n    address[] adminList;\n    uint64 sectionIndex;\n    uint height;\n    bytes32 hash;\n    uint sectionSize;\n    uint processConfirms;\n    uint threshold;\n\n    function VotingThreshold() public view returns (uint) {\n        return threshold;\n    }\n}\n",
  "sourcePath": "G:\\projects\\private-ethereum\\contract\\contracts\\CheckpointOracle.sol",
  "compiler": {
    "name": "solc",
    "version": "0.8.10+commit.fc410830.Emscripten.clang"
  },
  "schemaVersion": "3.4.3",
  "updatedAt": "2022-01-23T05:15:50.080Z",
  "devdoc": {
    "kind": "dev",
    "methods": {},
    "version": 1
  },
  "userdoc": {
    "kind": "user",
    "methods": {},
    "version": 1
  }
}